{
  "contractName": "CrowdfundingPlatform",
  "abi": [
    {
      "constant": true,
      "inputs": [],
      "name": "noOfFundraisers",
      "outputs": [
        {
          "name": "",
          "type": "uint256"
        }
      ],
      "payable": false,
      "stateMutability": "view",
      "type": "function",
      "signature": "0xd4006d93"
    },
    {
      "constant": true,
      "inputs": [
        {
          "name": "",
          "type": "uint256"
        }
      ],
      "name": "fundraisers",
      "outputs": [
        {
          "name": "id",
          "type": "uint256"
        },
        {
          "name": "title",
          "type": "string"
        },
        {
          "name": "description",
          "type": "string"
        },
        {
          "name": "imageURL",
          "type": "string"
        },
        {
          "name": "location",
          "type": "string"
        },
        {
          "name": "totalAmount",
          "type": "uint256"
        },
        {
          "name": "amountRaised",
          "type": "uint256"
        },
        {
          "name": "amountReleased",
          "type": "uint256"
        },
        {
          "name": "owner",
          "type": "address"
        },
        {
          "name": "approved",
          "type": "bool"
        },
        {
          "name": "completed",
          "type": "bool"
        }
      ],
      "payable": false,
      "stateMutability": "view",
      "type": "function",
      "signature": "0xf38f72fb"
    },
    {
      "constant": true,
      "inputs": [],
      "name": "administrator",
      "outputs": [
        {
          "name": "",
          "type": "address"
        }
      ],
      "payable": false,
      "stateMutability": "view",
      "type": "function",
      "signature": "0xf53d0a8e"
    },
    {
      "inputs": [],
      "payable": false,
      "stateMutability": "nonpayable",
      "type": "constructor",
      "signature": "constructor"
    },
    {
      "anonymous": false,
      "inputs": [
        {
          "indexed": false,
          "name": "id",
          "type": "uint256"
        },
        {
          "indexed": false,
          "name": "title",
          "type": "string"
        },
        {
          "indexed": false,
          "name": "description",
          "type": "string"
        },
        {
          "indexed": false,
          "name": "imageURL",
          "type": "string"
        },
        {
          "indexed": false,
          "name": "location",
          "type": "string"
        },
        {
          "indexed": false,
          "name": "totalAmount",
          "type": "uint256"
        },
        {
          "indexed": false,
          "name": "amountRaised",
          "type": "uint256"
        },
        {
          "indexed": false,
          "name": "amountReleased",
          "type": "uint256"
        },
        {
          "indexed": false,
          "name": "owner",
          "type": "address"
        },
        {
          "indexed": false,
          "name": "approved",
          "type": "bool"
        },
        {
          "indexed": false,
          "name": "completed",
          "type": "bool"
        }
      ],
      "name": "FundraiserCreated",
      "type": "event",
      "signature": "0xf92e582f84415d67732234159ebd9018f4831adebf80ebd3bef50a5cef9ea062"
    },
    {
      "anonymous": false,
      "inputs": [
        {
          "indexed": false,
          "name": "amountRaised",
          "type": "uint256"
        }
      ],
      "name": "FundsRaised",
      "type": "event",
      "signature": "0x976d507c4368e1202bea900c96520eda3a7643f7bb40b0fdfad742fd214ae7db"
    },
    {
      "constant": false,
      "inputs": [
        {
          "name": "_title",
          "type": "string"
        },
        {
          "name": "_description",
          "type": "string"
        },
        {
          "name": "_imageURL",
          "type": "string"
        },
        {
          "name": "_location",
          "type": "string"
        },
        {
          "name": "_totalAmount",
          "type": "uint256"
        }
      ],
      "name": "raiseFunds",
      "outputs": [],
      "payable": false,
      "stateMutability": "nonpayable",
      "type": "function",
      "signature": "0x751f876b"
    },
    {
      "constant": false,
      "inputs": [
        {
          "name": "_id",
          "type": "uint256"
        }
      ],
      "name": "fundProject",
      "outputs": [],
      "payable": true,
      "stateMutability": "payable",
      "type": "function",
      "signature": "0x6c563abe"
    },
    {
      "constant": false,
      "inputs": [
        {
          "name": "_id",
          "type": "uint256"
        }
      ],
      "name": "approveFunds",
      "outputs": [],
      "payable": false,
      "stateMutability": "nonpayable",
      "type": "function",
      "signature": "0x89241f96"
    },
    {
      "constant": false,
      "inputs": [
        {
          "name": "_id",
          "type": "uint256"
        },
        {
          "name": "_to",
          "type": "address"
        },
        {
          "name": "_amount",
          "type": "uint256"
        }
      ],
      "name": "reimburseFunds",
      "outputs": [],
      "payable": false,
      "stateMutability": "nonpayable",
      "type": "function",
      "signature": "0xf5350601"
    }
  ],
  "bytecode": "0x6080604052600060015534801561001557600080fd5b50336000806101000a81548173ffffffffffffffffffffffffffffffffffffffff021916908373ffffffffffffffffffffffffffffffffffffffff1602179055506111e7806100656000396000f3fe608060405260043610610083576000357c0100000000000000000000000000000000000000000000000000000000900463ffffffff1680636c563abe14610088578063751f876b146100b657806389241f961461034d578063d4006d9314610388578063f38f72fb146103b3578063f535060114610610578063f53d0a8e14610675575b600080fd5b6100b46004803603602081101561009e57600080fd5b81019080803590602001909291905050506106cc565b005b3480156100c257600080fd5b5061034b600480360360a08110156100d957600080fd5b81019080803590602001906401000000008111156100f657600080fd5b82018360208201111561010857600080fd5b8035906020019184600183028401116401000000008311171561012a57600080fd5b91908080601f016020809104026020016040519081016040528093929190818152602001838380828437600081840152601f19601f8201169050808301925050505050505091929192908035906020019064010000000081111561018d57600080fd5b82018360208201111561019f57600080fd5b803590602001918460018302840111640100000000831117156101c157600080fd5b91908080601f016020809104026020016040519081016040528093929190818152602001838380828437600081840152601f19601f8201169050808301925050505050505091929192908035906020019064010000000081111561022457600080fd5b82018360208201111561023657600080fd5b8035906020019184600183028401116401000000008311171561025857600080fd5b91908080601f016020809104026020016040519081016040528093929190818152602001838380828437600081840152601f19601f820116905080830192505050505050509192919290803590602001906401000000008111156102bb57600080fd5b8201836020820111156102cd57600080fd5b803590602001918460018302840111640100000000831117156102ef57600080fd5b91908080601f016020809104026020016040519081016040528093929190818152602001838380828437600081840152601f19601f820116905080830192505050505050509192919290803590602001909291905050506107c1565b005b34801561035957600080fd5b506103866004803603602081101561037057600080fd5b8101908080359060200190929190505050610be8565b005b34801561039457600080fd5b5061039d610d21565b6040518082815260200191505060405180910390f35b3480156103bf57600080fd5b506103ec600480360360208110156103d657600080fd5b8101908080359060200190929190505050610d27565b604051808c8152602001806020018060200180602001806020018b81526020018a81526020018981526020018873ffffffffffffffffffffffffffffffffffffffff1673ffffffffffffffffffffffffffffffffffffffff168152602001871515151581526020018615151515815260200185810385528f818151815260200191508051906020019080838360005b8381101561049657808201518184015260208101905061047b565b50505050905090810190601f1680156104c35780820380516001836020036101000a031916815260200191505b5085810384528e818151815260200191508051906020019080838360005b838110156104fc5780820151818401526020810190506104e1565b50505050905090810190601f1680156105295780820380516001836020036101000a031916815260200191505b5085810383528d818151815260200191508051906020019080838360005b83811015610562578082015181840152602081019050610547565b50505050905090810190601f16801561058f5780820380516001836020036101000a031916815260200191505b5085810382528c818151815260200191508051906020019080838360005b838110156105c85780820151818401526020810190506105ad565b50505050905090810190601f1680156105f55780820380516001836020036101000a031916815260200191505b509f5050505050505050505050505050505060405180910390f35b34801561061c57600080fd5b506106736004803603606081101561063357600080fd5b8101908080359060200190929190803573ffffffffffffffffffffffffffffffffffffffff1690602001909291908035906020019092919050505061101b565b005b34801561068157600080fd5b5061068a6110f1565b604051808273ffffffffffffffffffffffffffffffffffffffff1673ffffffffffffffffffffffffffffffffffffffff16815260200191505060405180910390f35b6000341180156106f357503373ffffffffffffffffffffffffffffffffffffffff16313411155b15156106fe57600080fd5b346002600083815260200190815260200160002060060160008282540192505081905550600260008281526020019081526020016000206005015460026000838152602001908152602001600020600601541015156107875760016002600083815260200190815260200160002060080160156101000a81548160ff0219169083151502179055505b7f976d507c4368e1202bea900c96520eda3a7643f7bb40b0fdfad742fd214ae7db346040518082815260200191505060405180910390a150565b6000811115156107d057600080fd5b60016000815480929190600101919050555061016060405190810160405280600154815260200186815260200185815260200184815260200183815260200182815260200160008152602001600081526020013373ffffffffffffffffffffffffffffffffffffffff1681526020016001151581526020016000151581525060026000600154815260200190815260200160002060008201518160000155602082015181600101908051906020019061088a929190611116565b5060408201518160020190805190602001906108a7929190611116565b5060608201518160030190805190602001906108c4929190611116565b5060808201518160040190805190602001906108e1929190611116565b5060a0820151816005015560c0820151816006015560e082015181600701556101008201518160080160006101000a81548173ffffffffffffffffffffffffffffffffffffffff021916908373ffffffffffffffffffffffffffffffffffffffff1602179055506101208201518160080160146101000a81548160ff0219169083151502179055506101408201518160080160156101000a81548160ff0219169083151502179055509050507ff92e582f84415d67732234159ebd9018f4831adebf80ebd3bef50a5cef9ea06260015486868686866000803360016000604051808c8152602001806020018060200180602001806020018b81526020018a81526020018981526020018873ffffffffffffffffffffffffffffffffffffffff1673ffffffffffffffffffffffffffffffffffffffff168152602001871515151581526020018615151515815260200185810385528f818151815260200191508051906020019080838360005b83811015610a68578082015181840152602081019050610a4d565b50505050905090810190601f168015610a955780820380516001836020036101000a031916815260200191505b5085810384528e818151815260200191508051906020019080838360005b83811015610ace578082015181840152602081019050610ab3565b50505050905090810190601f168015610afb5780820380516001836020036101000a031916815260200191505b5085810383528d818151815260200191508051906020019080838360005b83811015610b34578082015181840152602081019050610b19565b50505050905090810190601f168015610b615780820380516001836020036101000a031916815260200191505b5085810382528c818151815260200191508051906020019080838360005b83811015610b9a578082015181840152602081019050610b7f565b50505050905090810190601f168015610bc75780820380516001836020036101000a031916815260200191505b509f5050505050505050505050505050505060405180910390a15050505050565b6000809054906101000a900473ffffffffffffffffffffffffffffffffffffffff1673ffffffffffffffffffffffffffffffffffffffff163373ffffffffffffffffffffffffffffffffffffffff16141515610c4357600080fd5b60006002600083815260200190815260200160002060080160009054906101000a900473ffffffffffffffffffffffffffffffffffffffff1690506000600260008481526020019081526020016000206007015460026000858152602001908152602001600020600601540390508173ffffffffffffffffffffffffffffffffffffffff166108fc829081150290604051600060405180830381858888f19350505050158015610cf7573d6000803e3d6000fd5b50806002600085815260200190815260200160002060070160008282540192505081905550505050565b60015481565b6002602052806000526040600020600091509050806000015490806001018054600181600116156101000203166002900480601f016020809104026020016040519081016040528092919081815260200182805460018160011615610100020316600290048015610dd95780601f10610dae57610100808354040283529160200191610dd9565b820191906000526020600020905b815481529060010190602001808311610dbc57829003601f168201915b505050505090806002018054600181600116156101000203166002900480601f016020809104026020016040519081016040528092919081815260200182805460018160011615610100020316600290048015610e775780601f10610e4c57610100808354040283529160200191610e77565b820191906000526020600020905b815481529060010190602001808311610e5a57829003601f168201915b505050505090806003018054600181600116156101000203166002900480601f016020809104026020016040519081016040528092919081815260200182805460018160011615610100020316600290048015610f155780601f10610eea57610100808354040283529160200191610f15565b820191906000526020600020905b815481529060010190602001808311610ef857829003601f168201915b505050505090806004018054600181600116156101000203166002900480601f016020809104026020016040519081016040528092919081815260200182805460018160011615610100020316600290048015610fb35780601f10610f8857610100808354040283529160200191610fb3565b820191906000526020600020905b815481529060010190602001808311610f9657829003601f168201915b5050505050908060050154908060060154908060070154908060080160009054906101000a900473ffffffffffffffffffffffffffffffffffffffff16908060080160149054906101000a900460ff16908060080160159054906101000a900460ff1690508b565b6000809054906101000a900473ffffffffffffffffffffffffffffffffffffffff1673ffffffffffffffffffffffffffffffffffffffff163373ffffffffffffffffffffffffffffffffffffffff1614151561107657600080fd5b8173ffffffffffffffffffffffffffffffffffffffff166108fc829081150290604051600060405180830381858888f193505050501580156110bc573d6000803e3d6000fd5b5060006002600085815260200190815260200160002060080160146101000a81548160ff021916908315150217905550505050565b6000809054906101000a900473ffffffffffffffffffffffffffffffffffffffff1681565b828054600181600116156101000203166002900490600052602060002090601f016020900481019282601f1061115757805160ff1916838001178555611185565b82800160010185558215611185579182015b82811115611184578251825591602001919060010190611169565b5b5090506111929190611196565b5090565b6111b891905b808211156111b457600081600090555060010161119c565b5090565b9056fea165627a7a723058203cb984d27217a165f8ee0f418d15f817b277597854624eec75f62a184cc8d2580029",
  "source": "pragma solidity ^0.5.0;\r\n\r\ncontract CrowdfundingPlatform {\r\n    address public administrator;\r\n    uint public noOfFundraisers = 0;\r\n\r\n    struct Fundraiser {\r\n        uint id;\r\n        string title;\r\n        string description;\r\n        string imageURL;\r\n        string location;\r\n        uint totalAmount;\r\n        uint amountRaised;\r\n        uint amountReleased;\r\n        address payable owner;\r\n        bool approved;\r\n        bool completed;\r\n    }\r\n\r\n    mapping(uint => Fundraiser) public fundraisers;\r\n\r\n    event FundraiserCreated(\r\n        uint id,\r\n        string title,\r\n        string description,\r\n        string imageURL,\r\n        string location,\r\n        uint totalAmount,\r\n        uint amountRaised,\r\n        uint amountReleased,\r\n        address payable owner,\r\n        bool approved,\r\n        bool completed\r\n    );\r\n\r\n    event FundsRaised(\r\n        uint amountRaised\r\n    ); \r\n\r\n    constructor() public {\r\n        administrator = msg.sender;\r\n    }\r\n\r\n    function raiseFunds(\r\n        string memory _title,\r\n        string memory _description,\r\n        string memory _imageURL,\r\n        string memory _location, \r\n        uint _totalAmount\r\n        ) public {\r\n        require(_totalAmount > 0);\r\n\r\n        noOfFundraisers++;\r\n\r\n        fundraisers[noOfFundraisers] = Fundraiser(\r\n            noOfFundraisers, _title, _description, _imageURL, _location, _totalAmount, 0, 0, msg.sender, true, false\r\n            );\r\n\r\n        emit FundraiserCreated(\r\n            noOfFundraisers, _title, _description, _imageURL, _location, _totalAmount, 0, 0, msg.sender, true, false\r\n        );\r\n        \r\n    }\r\n\r\n    function fundProject(uint _id) public payable {\r\n        require(msg.value > 0 && msg.value <= msg.sender.balance);\r\n\r\n        fundraisers[_id].amountRaised += msg.value;\r\n\r\n        if(fundraisers[_id].amountRaised >= fundraisers[_id].totalAmount) {\r\n            fundraisers[_id].completed = true;\r\n        }\r\n\r\n        emit FundsRaised(msg.value);\r\n    }\r\n\r\n    function approveFunds(uint _id) public {\r\n        require(msg.sender == administrator);\r\n\r\n        address payable _to = fundraisers[_id].owner;\r\n        uint _amount = fundraisers[_id].amountRaised - fundraisers[_id].amountReleased;\r\n\r\n        _to.transfer(_amount);\r\n\r\n        fundraisers[_id].amountReleased += _amount;\r\n    }\r\n\r\n    function reimburseFunds(uint _id, address payable _to, uint _amount) public {\r\n        require(msg.sender == administrator);\r\n\r\n        _to.transfer(_amount);\r\n\r\n        fundraisers[_id].approved = false;\r\n    }\r\n}",
  "sourcePath": "C:/Users/shiva/Downloads/Crowdfunding-dApp/frontend/src/contracts/CrowdfundingPlatform.sol",
  "compiler": {
    "name": "solc",
    "version": "0.5.0+commit.1d4f565a.Emscripten.clang"
  },
  "schemaVersion": "3.0.2",
  "updatedAt": "2022-04-25T19:48:36.588Z",
  "devdoc": {
    "methods": {}
  },
  "userdoc": {
    "methods": {}
  }
}